{
  "contractName": "Donation",
  "abi": [
    {
      "inputs": [
        {
          "internalType": "uint256",
          "name": "",
          "type": "uint256"
        }
      ],
      "name": "donationHistories",
      "outputs": [
        {
          "internalType": "string",
          "name": "nickname",
          "type": "string"
        },
        {
          "internalType": "uint256",
          "name": "projectId",
          "type": "uint256"
        },
        {
          "internalType": "string",
          "name": "subject",
          "type": "string"
        },
        {
          "internalType": "uint256",
          "name": "generation",
          "type": "uint256"
        },
        {
          "internalType": "string",
          "name": "date",
          "type": "string"
        },
        {
          "internalType": "uint256",
          "name": "amount",
          "type": "uint256"
        }
      ],
      "stateMutability": "view",
      "type": "function"
    },
    {
      "inputs": [
        {
          "internalType": "string",
          "name": "nickname",
          "type": "string"
        },
        {
          "internalType": "uint256",
          "name": "projectId",
          "type": "uint256"
        },
        {
          "internalType": "string",
          "name": "subject",
          "type": "string"
        },
        {
          "internalType": "uint256",
          "name": "generation",
          "type": "uint256"
        },
        {
          "internalType": "string",
          "name": "date",
          "type": "string"
        },
        {
          "internalType": "uint256",
          "name": "amount",
          "type": "uint256"
        }
      ],
      "name": "addDonationHistory",
      "outputs": [
        {
          "internalType": "uint256",
          "name": "",
          "type": "uint256"
        }
      ],
      "stateMutability": "nonpayable",
      "type": "function"
    },
    {
      "inputs": [],
      "name": "getDonationHistoriesLength",
      "outputs": [
        {
          "internalType": "uint256",
          "name": "",
          "type": "uint256"
        }
      ],
      "stateMutability": "view",
      "type": "function"
    },
    {
      "inputs": [
        {
          "internalType": "uint256",
          "name": "index",
          "type": "uint256"
        }
      ],
      "name": "getDonationHistory",
      "outputs": [
        {
          "components": [
            {
              "internalType": "string",
              "name": "nickname",
              "type": "string"
            },
            {
              "internalType": "uint256",
              "name": "projectId",
              "type": "uint256"
            },
            {
              "internalType": "string",
              "name": "subject",
              "type": "string"
            },
            {
              "internalType": "uint256",
              "name": "generation",
              "type": "uint256"
            },
            {
              "internalType": "string",
              "name": "date",
              "type": "string"
            },
            {
              "internalType": "uint256",
              "name": "amount",
              "type": "uint256"
            }
          ],
          "internalType": "struct Donation.DonationHistory",
          "name": "",
          "type": "tuple"
        }
      ],
      "stateMutability": "view",
      "type": "function"
    },
    {
      "inputs": [
        {
          "internalType": "uint256",
          "name": "page",
          "type": "uint256"
        },
        {
          "internalType": "uint256",
          "name": "pageSize",
          "type": "uint256"
        }
      ],
      "name": "getDonationHistories",
      "outputs": [
        {
          "components": [
            {
              "internalType": "string",
              "name": "nickname",
              "type": "string"
            },
            {
              "internalType": "uint256",
              "name": "projectId",
              "type": "uint256"
            },
            {
              "internalType": "string",
              "name": "subject",
              "type": "string"
            },
            {
              "internalType": "uint256",
              "name": "generation",
              "type": "uint256"
            },
            {
              "internalType": "string",
              "name": "date",
              "type": "string"
            },
            {
              "internalType": "uint256",
              "name": "amount",
              "type": "uint256"
            }
          ],
          "internalType": "struct Donation.DonationHistory[]",
          "name": "",
          "type": "tuple[]"
        }
      ],
      "stateMutability": "view",
      "type": "function"
    }
  ],
  "bytecode": "0x608060405234801561001057600080fd5b50611682806100206000396000f3fe608060405234801561001057600080fd5b50600436106100575760003560e01c80631d7dfe2d1461005c5780632869a6e61461008c578063633363a5146100bc5780637a8410c1146100ec578063f0ac166e1461010a575b600080fd5b61007660048036038101906100719190610bba565b61013f565b6040516100839190610caa565b60405180910390f35b6100a660048036038101906100a19190610cc5565b61021a565b6040516100b39190610e17565b60405180910390f35b6100d660048036038101906100d19190610e39565b610473565b6040516100e39190610fd2565b60405180910390f35b6100f4610804565b6040516101019190610caa565b60405180910390f35b610124600480360381019061011f9190610cc5565b610810565b6040516101369695949392919061103e565b60405180910390f35b6000806040518060c0016040528089815260200188815260200187815260200186815260200185815260200184815250908060018154018082558091505060019003906000526020600020906006020160009091909190915060008201518160000190816101ad91906112c0565b506020820151816001015560408201518160020190816101cd91906112c0565b506060820151816003015560808201518160040190816101ed91906112c0565b5060a0820151816005015550506001610204610804565b61020e91906113c1565b90509695505050505050565b6102226109f4565b61022a610804565b821061026b576040517f08c379a000000000000000000000000000000000000000000000000000000000815260040161026290611441565b60405180910390fd5b6000828154811061027f5761027e611461565b5b90600052602060002090600602016040518060c00160405290816000820180546102a8906110e3565b80601f01602080910402602001604051908101604052809291908181526020018280546102d4906110e3565b80156103215780601f106102f657610100808354040283529160200191610321565b820191906000526020600020905b81548152906001019060200180831161030457829003601f168201915b5050505050815260200160018201548152602001600282018054610344906110e3565b80601f0160208091040260200160405190810160405280929190818152602001828054610370906110e3565b80156103bd5780601f10610392576101008083540402835291602001916103bd565b820191906000526020600020905b8154815290600101906020018083116103a057829003601f168201915b50505050508152602001600382015481526020016004820180546103e0906110e3565b80601f016020809104026020016040519081016040528092919081815260200182805461040c906110e3565b80156104595780601f1061042e57610100808354040283529160200191610459565b820191906000526020600020905b81548152906001019060200180831161043c57829003601f168201915b505050505081526020016005820154815250509050919050565b6060600083116104b8576040517f08c379a00000000000000000000000000000000000000000000000000000000081526004016104af90611502565b60405180910390fd5b600082116104fb576040517f08c379a00000000000000000000000000000000000000000000000000000000081526004016104f29061156e565b60405180910390fd5b60008260018561050b91906113c1565b610515919061158e565b905060008080549050848361052a91906115d0565b1161054057838261053b91906115d0565b610547565b6000805490505b90506000828261055791906113c1565b67ffffffffffffffff8111156105705761056f610a59565b5b6040519080825280602002602001820160405280156105a957816020015b6105966109f4565b81526020019060019003908161058e5790505b50905060008390505b828110156107f757600081815481106105ce576105cd611461565b5b90600052602060002090600602016040518060c00160405290816000820180546105f7906110e3565b80601f0160208091040260200160405190810160405280929190818152602001828054610623906110e3565b80156106705780601f1061064557610100808354040283529160200191610670565b820191906000526020600020905b81548152906001019060200180831161065357829003601f168201915b5050505050815260200160018201548152602001600282018054610693906110e3565b80601f01602080910402602001604051908101604052809291908181526020018280546106bf906110e3565b801561070c5780601f106106e15761010080835404028352916020019161070c565b820191906000526020600020905b8154815290600101906020018083116106ef57829003601f168201915b505050505081526020016003820154815260200160048201805461072f906110e3565b80601f016020809104026020016040519081016040528092919081815260200182805461075b906110e3565b80156107a85780601f1061077d576101008083540402835291602001916107a8565b820191906000526020600020905b81548152906001019060200180831161078b57829003601f168201915b505050505081526020016005820154815250508285836107c891906113c1565b815181106107d9576107d8611461565b5b602002602001018190525080806107ef90611604565b9150506105b2565b5080935050505092915050565b60008080549050905090565b6000818154811061082057600080fd5b9060005260206000209060060201600091509050806000018054610843906110e3565b80601f016020809104026020016040519081016040528092919081815260200182805461086f906110e3565b80156108bc5780601f10610891576101008083540402835291602001916108bc565b820191906000526020600020905b81548152906001019060200180831161089f57829003601f168201915b5050505050908060010154908060020180546108d7906110e3565b80601f0160208091040260200160405190810160405280929190818152602001828054610903906110e3565b80156109505780601f1061092557610100808354040283529160200191610950565b820191906000526020600020905b81548152906001019060200180831161093357829003601f168201915b50505050509080600301549080600401805461096b906110e3565b80601f0160208091040260200160405190810160405280929190818152602001828054610997906110e3565b80156109e45780601f106109b9576101008083540402835291602001916109e4565b820191906000526020600020905b8154815290600101906020018083116109c757829003601f168201915b5050505050908060050154905086565b6040518060c001604052806060815260200160008152602001606081526020016000815260200160608152602001600081525090565b6000604051905090565b600080fd5b600080fd5b600080fd5b600080fd5b6000601f19601f8301169050919050565b7f4e487b7100000000000000000000000000000000000000000000000000000000600052604160045260246000fd5b610a9182610a48565b810181811067ffffffffffffffff82111715610ab057610aaf610a59565b5b80604052505050565b6000610ac3610a2a565b9050610acf8282610a88565b919050565b600067ffffffffffffffff821115610aef57610aee610a59565b5b610af882610a48565b9050602081019050919050565b82818337600083830152505050565b6000610b27610b2284610ad4565b610ab9565b905082815260208101848484011115610b4357610b42610a43565b5b610b4e848285610b05565b509392505050565b600082601f830112610b6b57610b6a610a3e565b5b8135610b7b848260208601610b14565b91505092915050565b6000819050919050565b610b9781610b84565b8114610ba257600080fd5b50565b600081359050610bb481610b8e565b92915050565b60008060008060008060c08789031215610bd757610bd6610a34565b5b600087013567ffffffffffffffff811115610bf557610bf4610a39565b5b610c0189828a01610b56565b9650506020610c1289828a01610ba5565b955050604087013567ffffffffffffffff811115610c3357610c32610a39565b5b610c3f89828a01610b56565b9450506060610c5089828a01610ba5565b935050608087013567ffffffffffffffff811115610c7157610c70610a39565b5b610c7d89828a01610b56565b92505060a0610c8e89828a01610ba5565b9150509295509295509295565b610ca481610b84565b82525050565b6000602082019050610cbf6000830184610c9b565b92915050565b600060208284031215610cdb57610cda610a34565b5b6000610ce984828501610ba5565b91505092915050565b600081519050919050565b600082825260208201905092915050565b60005b83811015610d2c578082015181840152602081019050610d11565b60008484015250505050565b6000610d4382610cf2565b610d4d8185610cfd565b9350610d5d818560208601610d0e565b610d6681610a48565b840191505092915050565b610d7a81610b84565b82525050565b600060c0830160008301518482036000860152610d9d8282610d38565b9150506020830151610db26020860182610d71565b5060408301518482036040860152610dca8282610d38565b9150506060830151610ddf6060860182610d71565b5060808301518482036080860152610df78282610d38565b91505060a0830151610e0c60a0860182610d71565b508091505092915050565b60006020820190508181036000830152610e318184610d80565b905092915050565b60008060408385031215610e5057610e4f610a34565b5b6000610e5e85828601610ba5565b9250506020610e6f85828601610ba5565b9150509250929050565b600081519050919050565b600082825260208201905092915050565b6000819050602082019050919050565b600060c0830160008301518482036000860152610ec28282610d38565b9150506020830151610ed76020860182610d71565b5060408301518482036040860152610eef8282610d38565b9150506060830151610f046060860182610d71565b5060808301518482036080860152610f1c8282610d38565b91505060a0830151610f3160a0860182610d71565b508091505092915050565b6000610f488383610ea5565b905092915050565b6000602082019050919050565b6000610f6882610e79565b610f728185610e84565b935083602082028501610f8485610e95565b8060005b85811015610fc05784840389528151610fa18582610f3c565b9450610fac83610f50565b925060208a01995050600181019050610f88565b50829750879550505050505092915050565b60006020820190508181036000830152610fec8184610f5d565b905092915050565b600082825260208201905092915050565b600061101082610cf2565b61101a8185610ff4565b935061102a818560208601610d0e565b61103381610a48565b840191505092915050565b600060c08201905081810360008301526110588189611005565b90506110676020830188610c9b565b81810360408301526110798187611005565b90506110886060830186610c9b565b818103608083015261109a8185611005565b90506110a960a0830184610c9b565b979650505050505050565b7f4e487b7100000000000000000000000000000000000000000000000000000000600052602260045260246000fd5b600060028204905060018216806110fb57607f821691505b60208210810361110e5761110d6110b4565b5b50919050565b60008190508160005260206000209050919050565b60006020601f8301049050919050565b600082821b905092915050565b6000600883026111767fffffffffffffffffffffffffffffffffffffffffffffffffffffffffffffffff82611139565b6111808683611139565b95508019841693508086168417925050509392505050565b6000819050919050565b60006111bd6111b86111b384610b84565b611198565b610b84565b9050919050565b6000819050919050565b6111d7836111a2565b6111eb6111e3826111c4565b848454611146565b825550505050565b600090565b6112006111f3565b61120b8184846111ce565b505050565b5b8181101561122f576112246000826111f8565b600181019050611211565b5050565b601f8211156112745761124581611114565b61124e84611129565b8101602085101561125d578190505b61127161126985611129565b830182611210565b50505b505050565b600082821c905092915050565b600061129760001984600802611279565b1980831691505092915050565b60006112b08383611286565b9150826002028217905092915050565b6112c982610cf2565b67ffffffffffffffff8111156112e2576112e1610a59565b5b6112ec82546110e3565b6112f7828285611233565b600060209050601f83116001811461132a5760008415611318578287015190505b61132285826112a4565b86555061138a565b601f19841661133886611114565b60005b828110156113605784890151825560018201915060208501945060208101905061133b565b8683101561137d5784890151611379601f891682611286565b8355505b6001600288020188555050505b505050505050565b7f4e487b7100000000000000000000000000000000000000000000000000000000600052601160045260246000fd5b60006113cc82610b84565b91506113d783610b84565b92508282039050818111156113ef576113ee611392565b5b92915050565b7f496e76616c696420696e64657800000000000000000000000000000000000000600082015250565b600061142b600d83610ff4565b9150611436826113f5565b602082019050919050565b6000602082019050818103600083015261145a8161141e565b9050919050565b7f4e487b7100000000000000000000000000000000000000000000000000000000600052603260045260246000fd5b7f50616765206e756d626572206d7573742062652067726561746572207468616e60008201527f2030000000000000000000000000000000000000000000000000000000000000602082015250565b60006114ec602283610ff4565b91506114f782611490565b604082019050919050565b6000602082019050818103600083015261151b816114df565b9050919050565b7f506167652073697a65206d7573742062652067726561746572207468616e2030600082015250565b6000611558602083610ff4565b915061156382611522565b602082019050919050565b600060208201905081810360008301526115878161154b565b9050919050565b600061159982610b84565b91506115a483610b84565b92508282026115b281610b84565b915082820484148315176115c9576115c8611392565b5b5092915050565b60006115db82610b84565b91506115e683610b84565b92508282019050808211156115fe576115fd611392565b5b92915050565b600061160f82610b84565b91507fffffffffffffffffffffffffffffffffffffffffffffffffffffffffffffffff820361164157611640611392565b5b60018201905091905056fea26469706673582212208426b41d4f109b12780ae01aaa81f9fc77c96aba953d70d1cf8e9040d1cfcf2764736f6c63430008130033",
  "immutableReferences": {},
  "source": "// SPDX-License-Identifier: MIT\r\npragma solidity ^0.8.9;\r\n\r\ncontract Donation {\r\n    struct DonationHistory {\r\n        string nickname; // \r\n        uint256 projectId; //   ID\r\n        string subject; //   \r\n        uint generation; //   \r\n        string date; //  \r\n        uint256 amount; //  \r\n    }\r\n\r\n    DonationHistory[] public donationHistories; //   \r\n\r\n    //     ->   \r\n    function addDonationHistory(string memory nickname, uint256 projectId, string memory subject, uint generation, string memory date, uint256 amount) public returns (uint256) {\r\n         //uint256 length = getDonationHistoriesLength();\r\n         //donationHistories[length] = DonationHistory(nickname, projectId, subject, generation, date, amount);\r\n         donationHistories.push(DonationHistory(nickname, projectId, subject, generation, date, amount));\r\n\r\n         return getDonationHistoriesLength() - 1;\r\n    }\r\n\r\n    // donationHistories   \r\n    function getDonationHistoriesLength() public view returns (uint256) {\r\n        return donationHistories.length;\r\n    }\r\n\r\n    //   DonationHistory \r\n    function getDonationHistory(uint index) public view returns (DonationHistory memory) {\r\n        require(index < getDonationHistoriesLength(), \"Invalid index\");\r\n\r\n        return donationHistories[index];\r\n    }\r\n\r\n    //    - \r\n    function getDonationHistories(uint256 page, uint256 pageSize) public view returns (DonationHistory[] memory) {\r\n        require(page > 0, \"Page number must be greater than 0\");\r\n        require(pageSize > 0, \"Page size must be greater than 0\");\r\n\r\n        uint256 startIndex = (page - 1) * pageSize;\r\n        uint256 endIndex = startIndex + pageSize > donationHistories.length ? donationHistories.length : startIndex + pageSize;\r\n\r\n        DonationHistory[] memory result = new DonationHistory[](endIndex - startIndex);\r\n\r\n        for (uint256 i = startIndex; i < endIndex; i++) {\r\n            result[i - startIndex] = donationHistories[i];\r\n        }\r\n\r\n        return result;\r\n    }\r\n}",
  "sourcePath": "C:\\SSAFY\\\\S08P22C207\\truffle\\contracts\\Donation.sol",
  "compiler": {
    "name": "solc",
    "version": "0.8.19+commit.7dd6d404.Emscripten.clang"
  },
  "schemaVersion": "3.4.13",
  "updatedAt": "2023-04-01T07:43:35.249Z",
  "devdoc": {
    "kind": "dev",
    "methods": {},
    "version": 1
  },
  "userdoc": {
    "kind": "user",
    "methods": {},
    "version": 1
  }
}