{
  "contractName": "HeeToken",
  "abi": [
    {
      "inputs": [],
      "stateMutability": "nonpayable",
      "type": "constructor"
    },
    {
      "anonymous": false,
      "inputs": [
        {
          "indexed": true,
          "internalType": "address",
          "name": "owner",
          "type": "address"
        },
        {
          "indexed": true,
          "internalType": "address",
          "name": "spender",
          "type": "address"
        },
        {
          "indexed": false,
          "internalType": "uint256",
          "name": "value",
          "type": "uint256"
        }
      ],
      "name": "Approval",
      "type": "event"
    },
    {
      "anonymous": false,
      "inputs": [
        {
          "indexed": true,
          "internalType": "address",
          "name": "from",
          "type": "address"
        },
        {
          "indexed": true,
          "internalType": "address",
          "name": "to",
          "type": "address"
        },
        {
          "indexed": false,
          "internalType": "uint256",
          "name": "value",
          "type": "uint256"
        }
      ],
      "name": "Transfer",
      "type": "event"
    },
    {
      "inputs": [],
      "name": "_totalSupply",
      "outputs": [
        {
          "internalType": "uint256",
          "name": "",
          "type": "uint256"
        }
      ],
      "stateMutability": "view",
      "type": "function",
      "constant": true
    },
    {
      "inputs": [
        {
          "internalType": "address",
          "name": "owner",
          "type": "address"
        },
        {
          "internalType": "address",
          "name": "spender",
          "type": "address"
        }
      ],
      "name": "allowance",
      "outputs": [
        {
          "internalType": "uint256",
          "name": "",
          "type": "uint256"
        }
      ],
      "stateMutability": "view",
      "type": "function",
      "constant": true
    },
    {
      "inputs": [
        {
          "internalType": "address",
          "name": "spender",
          "type": "address"
        },
        {
          "internalType": "uint256",
          "name": "amount",
          "type": "uint256"
        }
      ],
      "name": "approve",
      "outputs": [
        {
          "internalType": "bool",
          "name": "",
          "type": "bool"
        }
      ],
      "stateMutability": "nonpayable",
      "type": "function"
    },
    {
      "inputs": [
        {
          "internalType": "address",
          "name": "account",
          "type": "address"
        }
      ],
      "name": "balanceOf",
      "outputs": [
        {
          "internalType": "uint256",
          "name": "",
          "type": "uint256"
        }
      ],
      "stateMutability": "view",
      "type": "function",
      "constant": true
    },
    {
      "inputs": [],
      "name": "decimals",
      "outputs": [
        {
          "internalType": "uint8",
          "name": "",
          "type": "uint8"
        }
      ],
      "stateMutability": "view",
      "type": "function",
      "constant": true
    },
    {
      "inputs": [
        {
          "internalType": "address",
          "name": "spender",
          "type": "address"
        },
        {
          "internalType": "uint256",
          "name": "subtractedValue",
          "type": "uint256"
        }
      ],
      "name": "decreaseAllowance",
      "outputs": [
        {
          "internalType": "bool",
          "name": "",
          "type": "bool"
        }
      ],
      "stateMutability": "nonpayable",
      "type": "function"
    },
    {
      "inputs": [
        {
          "internalType": "address",
          "name": "spender",
          "type": "address"
        },
        {
          "internalType": "uint256",
          "name": "addedValue",
          "type": "uint256"
        }
      ],
      "name": "increaseAllowance",
      "outputs": [
        {
          "internalType": "bool",
          "name": "",
          "type": "bool"
        }
      ],
      "stateMutability": "nonpayable",
      "type": "function"
    },
    {
      "inputs": [],
      "name": "name",
      "outputs": [
        {
          "internalType": "string",
          "name": "",
          "type": "string"
        }
      ],
      "stateMutability": "view",
      "type": "function",
      "constant": true
    },
    {
      "inputs": [],
      "name": "symbol",
      "outputs": [
        {
          "internalType": "string",
          "name": "",
          "type": "string"
        }
      ],
      "stateMutability": "view",
      "type": "function",
      "constant": true
    },
    {
      "inputs": [],
      "name": "totalSupply",
      "outputs": [
        {
          "internalType": "uint256",
          "name": "",
          "type": "uint256"
        }
      ],
      "stateMutability": "view",
      "type": "function",
      "constant": true
    },
    {
      "inputs": [
        {
          "internalType": "address",
          "name": "to",
          "type": "address"
        },
        {
          "internalType": "uint256",
          "name": "amount",
          "type": "uint256"
        }
      ],
      "name": "transfer",
      "outputs": [
        {
          "internalType": "bool",
          "name": "",
          "type": "bool"
        }
      ],
      "stateMutability": "nonpayable",
      "type": "function"
    },
    {
      "inputs": [
        {
          "internalType": "address",
          "name": "from",
          "type": "address"
        },
        {
          "internalType": "address",
          "name": "to",
          "type": "address"
        },
        {
          "internalType": "uint256",
          "name": "amount",
          "type": "uint256"
        }
      ],
      "name": "transferFrom",
      "outputs": [
        {
          "internalType": "bool",
          "name": "",
          "type": "bool"
        }
      ],
      "stateMutability": "nonpayable",
      "type": "function"
    },
    {
      "stateMutability": "payable",
      "type": "receive",
      "payable": true
    }
  ],
  "bytecode": "0x608060405262000014620000ef60201b60201c565b600a62000022919062000409565b629896806200003291906200045a565b6005553480156200004257600080fd5b506040518060400160405280600881526020017f486565546f6b656e0000000000000000000000000000000000000000000000008152506040518060400160405280600381526020017f4d6f6900000000000000000000000000000000000000000000000000000000008152508160039081620000c0919062000715565b508060049081620000d2919062000715565b505050620000e933600554620000f860201b60201c565b620008e8565b60006012905090565b600073ffffffffffffffffffffffffffffffffffffffff168273ffffffffffffffffffffffffffffffffffffffff16036200016a576040517f08c379a000000000000000000000000000000000000000000000000000000000815260040162000161906200085d565b60405180910390fd5b6200017e600083836200026560201b60201c565b80600260008282546200019291906200087f565b92505081905550806000808473ffffffffffffffffffffffffffffffffffffffff1673ffffffffffffffffffffffffffffffffffffffff168152602001908152602001600020600082825401925050819055508173ffffffffffffffffffffffffffffffffffffffff16600073ffffffffffffffffffffffffffffffffffffffff167fddf252ad1be2c89b69c2b068fc378daa952ba7f163c4a11628f55a4df523b3ef83604051620002459190620008cb565b60405180910390a362000261600083836200026a60201b60201c565b5050565b505050565b505050565b7f4e487b7100000000000000000000000000000000000000000000000000000000600052601160045260246000fd5b60008160011c9050919050565b6000808291508390505b6001851115620002fd57808604811115620002d557620002d46200026f565b5b6001851615620002e55780820291505b8081029050620002f5856200029e565b9450620002b5565b94509492505050565b600082620003185760019050620003eb565b81620003285760009050620003eb565b81600181146200034157600281146200034c5762000382565b6001915050620003eb565b60ff8411156200036157620003606200026f565b5b8360020a9150848211156200037b576200037a6200026f565b5b50620003eb565b5060208310610133831016604e8410600b8410161715620003bc5782820a905083811115620003b657620003b56200026f565b5b620003eb565b620003cb8484846001620002ab565b92509050818404811115620003e557620003e46200026f565b5b81810290505b9392505050565b6000819050919050565b600060ff82169050919050565b60006200041682620003f2565b91506200042383620003fc565b9250620004527fffffffffffffffffffffffffffffffffffffffffffffffffffffffffffffffff848462000306565b905092915050565b60006200046782620003f2565b91506200047483620003f2565b92508282026200048481620003f2565b915082820484148315176200049e576200049d6200026f565b5b5092915050565b600081519050919050565b7f4e487b7100000000000000000000000000000000000000000000000000000000600052604160045260246000fd5b7f4e487b7100000000000000000000000000000000000000000000000000000000600052602260045260246000fd5b600060028204905060018216806200052757607f821691505b6020821081036200053d576200053c620004df565b5b50919050565b60008190508160005260206000209050919050565b60006020601f8301049050919050565b600082821b905092915050565b600060088302620005a77fffffffffffffffffffffffffffffffffffffffffffffffffffffffffffffffff8262000568565b620005b3868362000568565b95508019841693508086168417925050509392505050565b6000819050919050565b6000620005f6620005f0620005ea84620003f2565b620005cb565b620003f2565b9050919050565b6000819050919050565b6200061283620005d5565b6200062a6200062182620005fd565b84845462000575565b825550505050565b600090565b6200064162000632565b6200064e81848462000607565b505050565b5b8181101562000676576200066a60008262000637565b60018101905062000654565b5050565b601f821115620006c5576200068f8162000543565b6200069a8462000558565b81016020851015620006aa578190505b620006c2620006b98562000558565b83018262000653565b50505b505050565b600082821c905092915050565b6000620006ea60001984600802620006ca565b1980831691505092915050565b6000620007058383620006d7565b9150826002028217905092915050565b6200072082620004a5565b67ffffffffffffffff8111156200073c576200073b620004b0565b5b6200074882546200050e565b620007558282856200067a565b600060209050601f8311600181146200078d576000841562000778578287015190505b620007848582620006f7565b865550620007f4565b601f1984166200079d8662000543565b60005b82811015620007c757848901518255600182019150602085019450602081019050620007a0565b86831015620007e75784890151620007e3601f891682620006d7565b8355505b6001600288020188555050505b505050505050565b600082825260208201905092915050565b7f45524332303a206d696e7420746f20746865207a65726f206164647265737300600082015250565b600062000845601f83620007fc565b915062000852826200080d565b602082019050919050565b60006020820190508181036000830152620008788162000836565b9050919050565b60006200088c82620003f2565b91506200089983620003f2565b9250828201905080821115620008b457620008b36200026f565b5b92915050565b620008c581620003f2565b82525050565b6000602082019050620008e26000830184620008ba565b92915050565b61151980620008f86000396000f3fe6080604052600436106100ab5760003560e01c80633eaaf86b116100645780633eaaf86b1461020c57806370a082311461023757806395d89b4114610274578063a457c2d71461029f578063a9059cbb146102dc578063dd62ed3e14610319576100cf565b806306fdde03146100d4578063095ea7b3146100ff57806318160ddd1461013c57806323b872dd14610167578063313ce567146101a457806339509351146101cf576100cf565b366100cf576000620f4240346100c19190610cf1565b90506100cd3382610356565b005b600080fd5b3480156100e057600080fd5b506100e96104ac565b6040516100f69190610dc3565b60405180910390f35b34801561010b57600080fd5b5061012660048036038101906101219190610e74565b61053e565b6040516101339190610ecf565b60405180910390f35b34801561014857600080fd5b50610151610561565b60405161015e9190610ef9565b60405180910390f35b34801561017357600080fd5b5061018e60048036038101906101899190610f14565b61056b565b60405161019b9190610ecf565b60405180910390f35b3480156101b057600080fd5b506101b961059a565b6040516101c69190610f83565b60405180910390f35b3480156101db57600080fd5b506101f660048036038101906101f19190610e74565b6105a3565b6040516102039190610ecf565b60405180910390f35b34801561021857600080fd5b506102216105da565b60405161022e9190610ef9565b60405180910390f35b34801561024357600080fd5b5061025e60048036038101906102599190610f9e565b6105e0565b60405161026b9190610ef9565b60405180910390f35b34801561028057600080fd5b50610289610628565b6040516102969190610dc3565b60405180910390f35b3480156102ab57600080fd5b506102c660048036038101906102c19190610e74565b6106ba565b6040516102d39190610ecf565b60405180910390f35b3480156102e857600080fd5b5061030360048036038101906102fe9190610e74565b610731565b6040516103109190610ecf565b60405180910390f35b34801561032557600080fd5b50610340600480360381019061033b9190610fcb565b610754565b60405161034d9190610ef9565b60405180910390f35b600073ffffffffffffffffffffffffffffffffffffffff168273ffffffffffffffffffffffffffffffffffffffff16036103c5576040517f08c379a00000000000000000000000000000000000000000000000000000000081526004016103bc90611057565b60405180910390fd5b6103d1600083836107db565b80600260008282546103e39190611077565b92505081905550806000808473ffffffffffffffffffffffffffffffffffffffff1673ffffffffffffffffffffffffffffffffffffffff168152602001908152602001600020600082825401925050819055508173ffffffffffffffffffffffffffffffffffffffff16600073ffffffffffffffffffffffffffffffffffffffff167fddf252ad1be2c89b69c2b068fc378daa952ba7f163c4a11628f55a4df523b3ef836040516104949190610ef9565b60405180910390a36104a8600083836107e0565b5050565b6060600380546104bb906110da565b80601f01602080910402602001604051908101604052809291908181526020018280546104e7906110da565b80156105345780601f1061050957610100808354040283529160200191610534565b820191906000526020600020905b81548152906001019060200180831161051757829003601f168201915b5050505050905090565b6000806105496107e5565b90506105568185856107ed565b600191505092915050565b6000600254905090565b6000806105766107e5565b90506105838582856109b6565b61058e858585610a42565b60019150509392505050565b60006012905090565b6000806105ae6107e5565b90506105cf8185856105c08589610754565b6105ca9190611077565b6107ed565b600191505092915050565b60055481565b60008060008373ffffffffffffffffffffffffffffffffffffffff1673ffffffffffffffffffffffffffffffffffffffff168152602001908152602001600020549050919050565b606060048054610637906110da565b80601f0160208091040260200160405190810160405280929190818152602001828054610663906110da565b80156106b05780601f10610685576101008083540402835291602001916106b0565b820191906000526020600020905b81548152906001019060200180831161069357829003601f168201915b5050505050905090565b6000806106c56107e5565b905060006106d38286610754565b905083811015610718576040517f08c379a000000000000000000000000000000000000000000000000000000000815260040161070f9061117d565b60405180910390fd5b61072582868684036107ed565b60019250505092915050565b60008061073c6107e5565b9050610749818585610a42565b600191505092915050565b6000600160008473ffffffffffffffffffffffffffffffffffffffff1673ffffffffffffffffffffffffffffffffffffffff16815260200190815260200160002060008373ffffffffffffffffffffffffffffffffffffffff1673ffffffffffffffffffffffffffffffffffffffff16815260200190815260200160002054905092915050565b505050565b505050565b600033905090565b600073ffffffffffffffffffffffffffffffffffffffff168373ffffffffffffffffffffffffffffffffffffffff160361085c576040517f08c379a00000000000000000000000000000000000000000000000000000000081526004016108539061120f565b60405180910390fd5b600073ffffffffffffffffffffffffffffffffffffffff168273ffffffffffffffffffffffffffffffffffffffff16036108cb576040517f08c379a00000000000000000000000000000000000000000000000000000000081526004016108c2906112a1565b60405180910390fd5b80600160008573ffffffffffffffffffffffffffffffffffffffff1673ffffffffffffffffffffffffffffffffffffffff16815260200190815260200160002060008473ffffffffffffffffffffffffffffffffffffffff1673ffffffffffffffffffffffffffffffffffffffff168152602001908152602001600020819055508173ffffffffffffffffffffffffffffffffffffffff168373ffffffffffffffffffffffffffffffffffffffff167f8c5be1e5ebec7d5bd14f71427d1e84f3dd0314c0f7b2291e5b200ac8c7c3b925836040516109a99190610ef9565b60405180910390a3505050565b60006109c28484610754565b90507fffffffffffffffffffffffffffffffffffffffffffffffffffffffffffffffff8114610a3c5781811015610a2e576040517f08c379a0000000000000000000000000000000000000000000000000000000008152600401610a259061130d565b60405180910390fd5b610a3b84848484036107ed565b5b50505050565b600073ffffffffffffffffffffffffffffffffffffffff168373ffffffffffffffffffffffffffffffffffffffff1603610ab1576040517f08c379a0000000000000000000000000000000000000000000000000000000008152600401610aa89061139f565b60405180910390fd5b600073ffffffffffffffffffffffffffffffffffffffff168273ffffffffffffffffffffffffffffffffffffffff1603610b20576040517f08c379a0000000000000000000000000000000000000000000000000000000008152600401610b1790611431565b60405180910390fd5b610b2b8383836107db565b60008060008573ffffffffffffffffffffffffffffffffffffffff1673ffffffffffffffffffffffffffffffffffffffff16815260200190815260200160002054905081811015610bb1576040517f08c379a0000000000000000000000000000000000000000000000000000000008152600401610ba8906114c3565b60405180910390fd5b8181036000808673ffffffffffffffffffffffffffffffffffffffff1673ffffffffffffffffffffffffffffffffffffffff16815260200190815260200160002081905550816000808573ffffffffffffffffffffffffffffffffffffffff1673ffffffffffffffffffffffffffffffffffffffff168152602001908152602001600020600082825401925050819055508273ffffffffffffffffffffffffffffffffffffffff168473ffffffffffffffffffffffffffffffffffffffff167fddf252ad1be2c89b69c2b068fc378daa952ba7f163c4a11628f55a4df523b3ef84604051610c9f9190610ef9565b60405180910390a3610cb28484846107e0565b50505050565b6000819050919050565b7f4e487b7100000000000000000000000000000000000000000000000000000000600052601160045260246000fd5b6000610cfc82610cb8565b9150610d0783610cb8565b9250828202610d1581610cb8565b91508282048414831517610d2c57610d2b610cc2565b5b5092915050565b600081519050919050565b600082825260208201905092915050565b60005b83811015610d6d578082015181840152602081019050610d52565b60008484015250505050565b6000601f19601f8301169050919050565b6000610d9582610d33565b610d9f8185610d3e565b9350610daf818560208601610d4f565b610db881610d79565b840191505092915050565b60006020820190508181036000830152610ddd8184610d8a565b905092915050565b600080fd5b600073ffffffffffffffffffffffffffffffffffffffff82169050919050565b6000610e1582610dea565b9050919050565b610e2581610e0a565b8114610e3057600080fd5b50565b600081359050610e4281610e1c565b92915050565b610e5181610cb8565b8114610e5c57600080fd5b50565b600081359050610e6e81610e48565b92915050565b60008060408385031215610e8b57610e8a610de5565b5b6000610e9985828601610e33565b9250506020610eaa85828601610e5f565b9150509250929050565b60008115159050919050565b610ec981610eb4565b82525050565b6000602082019050610ee46000830184610ec0565b92915050565b610ef381610cb8565b82525050565b6000602082019050610f0e6000830184610eea565b92915050565b600080600060608486031215610f2d57610f2c610de5565b5b6000610f3b86828701610e33565b9350506020610f4c86828701610e33565b9250506040610f5d86828701610e5f565b9150509250925092565b600060ff82169050919050565b610f7d81610f67565b82525050565b6000602082019050610f986000830184610f74565b92915050565b600060208284031215610fb457610fb3610de5565b5b6000610fc284828501610e33565b91505092915050565b60008060408385031215610fe257610fe1610de5565b5b6000610ff085828601610e33565b925050602061100185828601610e33565b9150509250929050565b7f45524332303a206d696e7420746f20746865207a65726f206164647265737300600082015250565b6000611041601f83610d3e565b915061104c8261100b565b602082019050919050565b6000602082019050818103600083015261107081611034565b9050919050565b600061108282610cb8565b915061108d83610cb8565b92508282019050808211156110a5576110a4610cc2565b5b92915050565b7f4e487b7100000000000000000000000000000000000000000000000000000000600052602260045260246000fd5b600060028204905060018216806110f257607f821691505b602082108103611105576111046110ab565b5b50919050565b7f45524332303a2064656372656173656420616c6c6f77616e63652062656c6f7760008201527f207a65726f000000000000000000000000000000000000000000000000000000602082015250565b6000611167602583610d3e565b91506111728261110b565b604082019050919050565b600060208201905081810360008301526111968161115a565b9050919050565b7f45524332303a20617070726f76652066726f6d20746865207a65726f2061646460008201527f7265737300000000000000000000000000000000000000000000000000000000602082015250565b60006111f9602483610d3e565b91506112048261119d565b604082019050919050565b60006020820190508181036000830152611228816111ec565b9050919050565b7f45524332303a20617070726f766520746f20746865207a65726f20616464726560008201527f7373000000000000000000000000000000000000000000000000000000000000602082015250565b600061128b602283610d3e565b91506112968261122f565b604082019050919050565b600060208201905081810360008301526112ba8161127e565b9050919050565b7f45524332303a20696e73756666696369656e7420616c6c6f77616e6365000000600082015250565b60006112f7601d83610d3e565b9150611302826112c1565b602082019050919050565b60006020820190508181036000830152611326816112ea565b9050919050565b7f45524332303a207472616e736665722066726f6d20746865207a65726f20616460008201527f6472657373000000000000000000000000000000000000000000000000000000602082015250565b6000611389602583610d3e565b91506113948261132d565b604082019050919050565b600060208201905081810360008301526113b88161137c565b9050919050565b7f45524332303a207472616e7366657220746f20746865207a65726f206164647260008201527f6573730000000000000000000000000000000000000000000000000000000000602082015250565b600061141b602383610d3e565b9150611426826113bf565b604082019050919050565b6000602082019050818103600083015261144a8161140e565b9050919050565b7f45524332303a207472616e7366657220616d6f756e742065786365656473206260008201527f616c616e63650000000000000000000000000000000000000000000000000000602082015250565b60006114ad602683610d3e565b91506114b882611451565b604082019050919050565b600060208201905081810360008301526114dc816114a0565b905091905056fea264697066735822122005b34fd30c1ea1dd1914b627a4587cd1f09b747c22e0758e4d0a30f2a8211ed964736f6c63430008130033",
  "immutableReferences": {},
  "source": "// SPDX-License-Identifier: MIT\r\npragma solidity ^0.8.9;\r\n\r\nimport \"@openzeppelin/contracts/token/ERC20/ERC20.sol\";\r\n\r\n// ERC20  HeeToken \r\n// ERC20 : fungible token \r\ncontract HeeToken is ERC20 {\r\n    uint256 public _totalSupply = 10000000 * (10 ** decimals());\r\n    \r\n    constructor() ERC20(\"HeeToken\", \"Moi\") {\r\n        _mint(msg.sender,_totalSupply);\r\n    }\r\n\r\n    // 1 ETH  1000000   \r\n    receive() external payable {\r\n        uint256 tokenAmount = msg.value * 1000000;\r\n        _mint(msg.sender, tokenAmount);\r\n    }\r\n}",
  "sourcePath": "C:\\SSAFY\\\\S08P22C207\\truffle\\contracts\\HeeToken.sol",
  "compiler": {
    "name": "solc",
    "version": "0.8.19+commit.7dd6d404.Emscripten.clang"
  },
  "schemaVersion": "3.4.13",
  "updatedAt": "2023-03-31T05:02:58.429Z",
  "networkType": "ethereum",
  "devdoc": {
    "events": {
      "Approval(address,address,uint256)": {
        "details": "Emitted when the allowance of a `spender` for an `owner` is set by a call to {approve}. `value` is the new allowance."
      },
      "Transfer(address,address,uint256)": {
        "details": "Emitted when `value` tokens are moved from one account (`from`) to another (`to`). Note that `value` may be zero."
      }
    },
    "kind": "dev",
    "methods": {
      "allowance(address,address)": {
        "details": "See {IERC20-allowance}."
      },
      "approve(address,uint256)": {
        "details": "See {IERC20-approve}. NOTE: If `amount` is the maximum `uint256`, the allowance is not updated on `transferFrom`. This is semantically equivalent to an infinite approval. Requirements: - `spender` cannot be the zero address."
      },
      "balanceOf(address)": {
        "details": "See {IERC20-balanceOf}."
      },
      "decimals()": {
        "details": "Returns the number of decimals used to get its user representation. For example, if `decimals` equals `2`, a balance of `505` tokens should be displayed to a user as `5.05` (`505 / 10 ** 2`). Tokens usually opt for a value of 18, imitating the relationship between Ether and Wei. This is the value {ERC20} uses, unless this function is overridden; NOTE: This information is only used for _display_ purposes: it in no way affects any of the arithmetic of the contract, including {IERC20-balanceOf} and {IERC20-transfer}."
      },
      "decreaseAllowance(address,uint256)": {
        "details": "Atomically decreases the allowance granted to `spender` by the caller. This is an alternative to {approve} that can be used as a mitigation for problems described in {IERC20-approve}. Emits an {Approval} event indicating the updated allowance. Requirements: - `spender` cannot be the zero address. - `spender` must have allowance for the caller of at least `subtractedValue`."
      },
      "increaseAllowance(address,uint256)": {
        "details": "Atomically increases the allowance granted to `spender` by the caller. This is an alternative to {approve} that can be used as a mitigation for problems described in {IERC20-approve}. Emits an {Approval} event indicating the updated allowance. Requirements: - `spender` cannot be the zero address."
      },
      "name()": {
        "details": "Returns the name of the token."
      },
      "symbol()": {
        "details": "Returns the symbol of the token, usually a shorter version of the name."
      },
      "totalSupply()": {
        "details": "See {IERC20-totalSupply}."
      },
      "transfer(address,uint256)": {
        "details": "See {IERC20-transfer}. Requirements: - `to` cannot be the zero address. - the caller must have a balance of at least `amount`."
      },
      "transferFrom(address,address,uint256)": {
        "details": "See {IERC20-transferFrom}. Emits an {Approval} event indicating the updated allowance. This is not required by the EIP. See the note at the beginning of {ERC20}. NOTE: Does not update the allowance if the current allowance is the maximum `uint256`. Requirements: - `from` and `to` cannot be the zero address. - `from` must have a balance of at least `amount`. - the caller must have allowance for ``from``'s tokens of at least `amount`."
      }
    },
    "version": 1
  },
  "userdoc": {
    "kind": "user",
    "methods": {},
    "version": 1
  }
}